:020000040800F2
:10000000D80C0020D50100083D110008D90C0008CB
:10001000D9100008450700088F1B000800000000E9
:100020000000000000000000000000008B15000828
:10003000210900080000000091140008451700087D
:10004000EF010008EF010008EF010008EF010008D0
:10005000EF010008EF010008EF010008EF010008C0
:10006000EF010008EF010008EF010008EF010008B0
:10007000EF010008EF010008EF010008EF010008A0
:10008000EF010008EF010008EF010008EF01000890
:10009000EF010008EF010008EF010008EF01000880
:1000A000EF010008EF010008EF010008EF01000870
:1000B000EF010008EF010008EF010008EF01000860
:1000C000EF010008EF010008EF010008EF01000850
:1000D000EF010008A91A0008EF010008EF0100086D
:1000E000EF010008EF010008EF010008EF01000830
:1000F000EF010008EF010008EF010008EF01000820
:10010000EF010008EF010008EF010008EF0100080F
:10011000EF010008EF010008EF010008EF010008FF
:10012000EF010008EF010008EF010008EF010008EF
:1001300000F002F800F03FF80AA090E8000C8244BA
:100140008344AAF10107DA4501D100F034F8AFF297
:10015000090EBAE80F0013F0010F18BFFB1A43F0A5
:1001600001031847CC310000EC310000103A24BFE5
:1001700078C878C1FAD8520724BF30C830C144BF0C
:1001800004680C607047000000230024002500264E
:10019000103A28BF78C1FBD8520728BF30C148BFEA
:1001A0000B607047642900F07F80002070471FB506
:1001B0001FBD10B510BD00F0B1F91146FFF7F7FFF4
:1001C00001F039FF00F0CFF903B4FFF7F2FF03BCF1
:1001D00001F0BCFE0948804709480047FEE7FEE7FA
:1001E000FEE7FEE7FEE7FEE7FEE7FEE7FEE7FEE7E7
:1001F00004480549054A064B7047000049170008A6
:1002000031010008D8060020D80C0020D8080020B2
:10021000D8080020704700000FB41CB5074B06AA91
:100220007B4469460090059800F017F90020694664
:1002300000F026F91CBC5DF814FB00005D02000014
:100240002DE9F0410E460446002020622046E16878
:10025000884730B3252805D0D4E901219047206A8A
:10026000401CF2E7E168204600278847050018D0C7
:10027000A5F14100192802D820354FF40067324615
:10028000294620462760FFF78DFF40B1012804D0A2
:10029000F61D26F007060836D8E7361DD6E72846AD
:1002A000DAE7206ABDE8F0812DE9F0410646002436
:1002B00010687529314616A510D0AFF300800028CC
:1002C00002DA404213A507E031688A0701D512A57A
:1002D00002E0490704D511A5012401E0AFF3008035
:1002E00000210A2206F1240709E0B0FBF2FCB0FB72
:1002F000F2F302FB1C00303078541846491C0028E9
:10030000F3D123462A463046BDE8F04100F046B816
:10031000000000002D0000002B0000002000000065
:1003200010B5203AC0F00B80B1E81850203AA0E890
:100330001850B1E81850A0E81850BFF4F5AF5FEAC4
:10034000027C24BFB1E81850A0E8185044BF18C977
:1003500018C0BDE810405FEA827C24BF51F8043B1E
:1003600040F8043B08BF7047D20728BF31F8023B72
:1003700048BF11F8012B28BF20F8023B48BF00F806
:10038000012B704702F0FF0343EA032242EA0242D4
:1003900000F07DB870477047704770472DE9F0470F
:1003A0000D4699469246044600F1240801688806E5
:1003B00004D5E06921F01001216000E00120A8428D
:1003C00001DD471B00E00027A1697A1902EB090053
:1003D000081AA0612078C00602D42046AFF300803E
:1003E000002608E0D4E901211AF806009047206AA7
:1003F000401C761C20624E45F4DB2078C0060AD5EE
:100400002046AFF3008006E0D4E901213020904778
:10041000206A401C2062381EA7F10107F4DC07E0C7
:10042000D4E9012118F805009047206A401C206299
:10043000281EA5F10105F3DC2046AFF300802078EB
:10044000000602D50220BDE8F0870120FBE700008E
:1004500001694A1C02610878704700B58FB0CDE988
:1004600001310021059105497944CDE90310114678
:100470006846FFF7E5FE0FB000BD0000E5FFFFFF97
:100480000A6802F8010B0A6070474FF00002042965
:10049000C0F0128010F0030C00F01B80CCF1040CB3
:1004A000BCF1020F18BF00F8012BA8BF20F8022BE7
:1004B000A1EB0C0100F00DB85FEAC17C24BF00F88D
:1004C000012B00F8012B48BF00F8012B70474FF0BB
:1004D000000200B5134694469646203922BFA0E894
:1004E0000C50A0E80C50B1F12001BFF4F7AF0907A0
:1004F00028BFA0E80C5048BF0CC05DF804EB890091
:1005000028BF40F8042B08BF704748BF20F8022BD3
:1005100011F0804F18BF00F8012B7047754600F0AE
:100520002BF8AE4605006946534620F00700854685
:1005300018B020B5FFF75CFEBDE820404FF0000684
:100540004FF000074FF000084FF0000B21F00701BB
:10055000AC46ACE8C009ACE8C009ACE8C009ACE8FE
:10056000C0098D46704710B50446AFF300802046A1
:10057000BDE81040FFF728BE00487047780600200D
:1005800021B1826842F00102826003E0826822F0B9
:1005900001028260704721B1826842F480728260F9
:1005A00003E0826822F48072826070470146002076
:1005B0008A6802F004020AB1012000E000207047BE
:1005C000014600208A6802F008020AB1012000E01A
:1005D0000020704730B502460020002350680F4CC1
:1005E00020400D790C6844EA05242043506090684F
:1005F0000B4C2040D1E902542C434D7944EA450488
:1006000020439060D06A20F470000C7C641EE4B239
:10061000234340EA0350D06230BD0000FFFEF0FFEC
:10062000FDF7F1FFF0B504460D4600200021092D2D
:1006300011DDE068A5F10A0606EB4607072606FA73
:1006400007F18843A5F10A0606EB460603FA06F110
:100650000843E0600CE0206905EB4507072606FA31
:1006600007F1884305EB450603FA06F108432061CC
:10067000072A0FDA606B561E06EB86071F2606FA5E
:1006800007F18843561E06EB860605FA06F1084375
:10069000606322E00D2A0FDA206BD61F06EB860777
:1006A0001F2606FA07F18843D61F06EB860605FAD1
:1006B00006F10843206310E0E06AA2F10D0606EBA4
:1006C00086071F2606FA07F18843A2F10D0606EBFE
:1006D000860605FA06F10843E062F0BD816841F044
:1006E00008018160704721B1826842F4A0028260F3
:1006F00003E0826822F4A00282607047816841F0C2
:100700000401816070470000024600210BE00848A8
:1007100000EB81004088904203D1054810F8210089
:100720007047481CC1B21029F1DB0020F8E7000037
:100730002E00002010B500F0DBFB00F0CFFA01F036
:1007400009FC10BD00BFFEE770B5002414E044F0C2
:10075000B00000F01BFF102000F018FF002000F098
:1007600015FF002504E0002000F030FF681CC5B232
:10077000842DF8DB601CC4B2082CE8DB70BD21B10D
:10078000026842F00102026004E002684FF6FE7364
:100790001A4002607047000001684FF6FE72114077
:1007A00001600021016041608160C1604B49884265
:1007B00008D14A490839496841F00F01474A083AC7
:1007C00051608AE045491431884208D143490839CB
:1007D000496841F0F001414A083A51607DE03F49E3
:1007E0002831884208D13D490839496841F470618F
:1007F0003A4A083A516070E038493C31884208D1A1
:1008000036490839496841F47041344A083A516020
:1008100063E032495031884208D13049083949688B
:1008200041F470212D4A083A516056E02B49643159
:10083000884208D129490839496841F47001274A9A
:10084000083A516049E025497831884208D1234966
:100850000839496841F07061204A083A51603CE02B
:100860001F49884206D1011F096841F00F01021F8C
:10087000116032E01A491431884208D11849091F21
:10088000096841F0F001164A121F116025E0144971
:100890002831884208D11249091F096841F4706162
:1008A0000F4A121F116018E00D493C31884208D1EF
:1008B0000B49091F096841F47041094A121F116070
:1008C0000BE007495031884207D10549091F0968E3
:1008D00041F47021024A121F116070470800024063
:1008E0000804024010B50022026847F6F0739A43EC
:1008F0000C6A8B6823430C6923434C6923438C693E
:100900002343CC6923434C6A23438C6A23431A4311
:100910000260CB6843600B6883604B68C36010BDA6
:10092000704700E0401E0028FCD170472DE9F041DF
:10093000024600250026002000230024002791F80D
:1009400003C00CF00F0591F803C00CF0100CBCF1C3
:10095000000F03D091F802C04CEA050591F800C0E1
:10096000BCF1000F31D0146800202BE04FF0010CD7
:100970000CFA00F3B1F800C00CEA03069E4220D145
:1009800083004FF00F0C0CFA03F7BC4305FA03FC8D
:100990004CEA040491F803C0BCF1280F06D14FF0D3
:1009A000010C0CFA00FCC2F814C00AE091F803C074
:1009B000BCF1480F05D14FF0010C0CFA00FCC2F855
:1009C00010C0401C0828D1D31460B1F800C0BCF19D
:1009D000FF0F34DD546800202EE000F1080C4FF0CA
:1009E000010808FA0CF3B1F800C00CEA03069E42B5
:1009F00021D183004FF00F0C0CFA03F7BC4305FA2A
:100A000003FC4CEA040491F803C0BCF1280F05D1A3
:100A100000F1080C08FA0CF8C2F8148091F803C031
:100A2000BCF1480F07D100F1080C4FF0010808FA9B
:100A30000CF8C2F81080401C0828CED35460BDE8E2
:100A4000F0814161704701617047000010B50021DD
:100A5000002209211BE001EB41000F4B18444078B4
:100A6000992812D101EB410018448278002001EB53
:100A70004103094C2344987001EB4103234458700F
:100A800001EB4103E05450B210BD481E41B20029B1
:100A9000E1DA0020F8E70000E805002000B5804812
:100AA00000F000F97E480068322874D97C4800685C
:100AB000B0F5DF7F08D97A48006840F222218842E9
:100AC00002D24FF4F87000BD7548006840F2B531AD
:100AD000884207D972480068B0F5836F02D840F2A7
:100AE000E730F0E76E480068B0F5B26F08D36C48A5
:100AF000006840F2F351884202D240F2C150E2E76E
:100B00006748006840F26E71884208D964480068FE
:100B100040F2D271884202D24FF4F460D3E76048C9
:100B2000006840F64411884208D95D48006840F6E4
:100B3000A811884202D240F67610C4E758480068EF
:100B400040F66B31884208D95548006840F6CF31ED
:100B5000884202D240F69D30B5E75148006840F621
:100B60002651884208D94E48006840F68A5188428A
:100B700002D240F65850A6E749480068B0F5726FB7
:100B800071D34748006840F6837188426BD240F6C3
:100B9000517098E7FFE742484068322874D94048CE
:100BA0004068B0F5DF7F07D33D484068B0F5087F67
:100BB00002D840F2EF1086E739484068B0F56D7F03
:100BC00007D937484068B0F5836F02D240F2E6306B
:100BD00079E73348406840F28E51884208D930485E
:100BE000406840F2F251884202D24FF4B8606AE79E
:100BF0002B48406840F26D71884207D92848406808
:100C0000B0F5FA6F02D840F29F705CE72448406864
:100C100040F64311884208D92148406840F6A711A0
:100C2000884202D240F675104DE71D48406840F6F4
:100C30006A31884208D91A48406840F6CE31884265
:100C400002D240F69C303EE71548406840F62551F8
:100C5000884209D91248406840F68951884203D237
:100C600040F657502FE719E00D48406840F61E71D6
:100C7000884213D90A48406840F6827188420DD2F2
:100C80004FF475601FE7FFE705480068322805D27A
:100C900003484068322801D2002014E7002012E700
:100CA0002000002010B501460022002300200AE0A9
:100CB000084C54F830402244064C04EBC0046468ED
:100CC0002344441CE0B21028F2DB14090C601C0918
:100CD0004C6010BD4801002000BFFEE700B591B098
:100CE00001214FF4067000F001FC0121084600F0DC
:100CF000DDFB002000F0CEFB202200213A48FFF768
:100D000041FB00208DF82F002020ADF82C000BA90E
:100D10003648FFF70BFE0120ADF82C000BA9344834
:100D2000FFF704FE00200C904FF460200E9000208E
:100D30000F9001208DF834008DF8350002208DF8D9
:100D400040000CA92B48FFF745FC01212948FFF77B
:100D500017FC0523012208212648FFF763FC052321
:100D600002220F212348FFF75DFC01212148FFF7F4
:100D700012FC2048FFF7B2FC00BF1E48FFF720FC22
:100D80000028FAD11B48FFF7B9FC00BF1948FFF74C
:100D90000DFC0028FAD11848FFF7FEFC15484C302E
:100DA0000090114801900020029020200390002024
:100DB00004908020059080000690800007902020FD
:100DC00008900002099000200A9069460A48FFF73F
:100DD00089FD01210848FFF7D2FC01210548FFF7F2
:100DE00082FC11B000BD000048010020001001404D
:100DF000000C0140002401400800024070B5FFF7DC
:100E00004DFE05462846FFF77FFC04461B48007848
:100E100020B91CB900201A4908702BE01748007847
:100E200040B13CB91548007800F0F0FB00201449AF
:100E300008701FE011480078E0B110480078844243
:100E400018D10F480078401C0D49087008460078FA
:100E500032280FDB0948007840F08000074908700D
:100E60000846007800F0D2FB0020054908700349CD
:100E7000087070BD0148047000BFFAE72B00002025
:100E80002C000020F0B513460C46CE1701EB567629
:100E9000C6F3C702CE1701EB5676F610A1EBC606D5
:100EA000F5B26FF07F44A3420FD102EB42140F4E14
:100EB00006EB8404245C0126AE40B44302EB4216E8
:100EC0000A4F07EB860634540FE073B902EB421465
:100ED000064E06EB8404245C0126AE40344302EB4C
:100EE0004216024F07EB86063454F0BDC8010020BD
:100EF00000B587B00121880300F0E8FA01214820FD
:100F000000F0F4FA03208DF806004FF42040ADF80D
:100F1000040018208DF8070001A92848FFF706FDF6
:100F200045F22000ADF8040010208DF8070001A95B
:100F30002248FFF7FBFC2020ADF8040001A920485F
:100F4000FFF7F4FC20211D48FFF77DFD20211B4801
:100F5000FFF777FD4FF44040ADF808004FF4827082
:100F6000ADF80A000020ADF80C000220ADF80E002C
:100F70000120ADF810004002ADF812000020ADF8DD
:100F80001400ADF816000720ADF8180002A90D48AE
:100F900000F0DDFA01210B4800F0CBFA20210748D0
:100FA000FFF751FD4FF480410448FFF74CFD01F07D
:100FB00019F8FFF7C9FB07B000BD0000000C0140A5
:100FC000001801400038004010B500203D4908706D
:100FD000FFF73CFD3B49087008460078002867D0C1
:100FE0000846007800F0800058BB6FF07F4000F0AA
:100FF00037FC34480078012811DB32480078052896
:101000000DDC3149097801EB4101304A02EBC102A4
:101010002C490978491E52F82100804748E02948A8
:101020000078062844DB27480078102840DC264951
:10103000097801EB4101254A02EBC101486980476B
:1010400036E02048007800F08000802830D16FF032
:101050007F4000F005FC1B48007800F07F00194934
:10106000087008460078012811DB0846007805283A
:101070000DDC1549097801EB4101154A02EBC1026B
:1010800010490978491E52F82100804710E00D48A8
:10109000007806280CDB0B480078102808DC0A4989
:1010A000097801EB41010A4A02EBC1014869804716
:1010B0000849054A127851F82200804700F0D2FC16
:1010C00010BD00002900002028000020502000084A
:1010D00018220008E023000800BFFEE710B54023F7
:1010E00084221349134800F0EBFB124800F0A6FCE1
:1010F000114800F0C9FB002000F0AEFC6FF07F400B
:1011000000F0A4FC002000F0CBFB002000F0D0FB9E
:101110003F2383220021084600F046FB002000F018
:1011200059FB6FF07F4000F04FFB00F09BFC10BDBF
:10113000850E0008080600202C3200087047704712
:1011400070477047704770477047704770477047E7
:10115000704770477047000010B503A20021084691
:1011600000F00CFC10BD00004C6F6E67436C724BBE
:101170006579000070477047704770477047704747
:1011800070477047704770477047704770477047A7
:10119000704770477047704710B503A2002108469A
:1011A00000F0ECFB10BD00004C6F6E67446F776E73
:1011B0004B657900704770477047704770477047BC
:1011C0007047704770477047704770477047704767
:1011D00070477047704770470EB50B480078821F04
:1011E0000AA16846FFF718F809A20021084600F096
:1011F000C5FB6A460021382000F0C0FB30220A21DE
:101200006846FFF7BFF80EBD2900002025640000E6
:101210004C6F6E674E756D00704770477047704732
:101220007047704770477047704770477047704706
:1012300070477047704770477047704710B503A2FA
:101240000021084600F09AFB10BD00004C6F6E674D
:101250004F6B4B65790000007047704770477047CF
:1012600070477047704770477047704770477047C6
:1012700070477047704770477047704710B503A2BA
:101280000021084600F07AFB10BD00004C6F6E672D
:101290005365744B6579000070477047704770471D
:1012A0007047704770477047704770477047704786
:1012B00070477047704770477047704710B503A27A
:1012C0000021084600F05AFB10BD00004C6F6E670D
:1012D00055704B6579000000704770477047704744
:1012E0007047704770477047704770477047704746
:1012F00070477047704770477047704710B503A23A
:101300000021084600F03AFB10BD000053686F72E0
:1013100074436C724B657900704770477047704733
:101320007047704770477047704770477047704705
:1013300070477047704770477047704710B503A2F9
:101340000021084600F01AFB10BD000053686F72C0
:1013500074446F776E4B65790000000070477047EA
:1013600070477047704770477047704770477047C5
:1013700070477047704770477047704770477047B5
:101380000EB50B480078821F0AA16846FEF744FF9D
:1013900009A20021084600F0F1FA6A460021402027
:1013A00000F0ECFA30220A216846FEF7EBFF0EBD92
:1013B000290000202564000053686F72744E756D1B
:1013C00000000000704770477047704770477047D3
:1013D0007047704770477047704770477047704755
:1013E000704770477047704710B503A20021084648
:1013F00000F0C4FA10BD000053686F72744F6B4B5D
:1014000065790000704770477047704770477047B4
:101410007047704770477047704770477047704714
:10142000704770477047704710B503A20021084607
:1014300000F0A4FA10BD000053686F727453657415
:101440004B65790070477047704770477047704729
:1014500070477047704770477047704770477047D4
:10146000704770477047704710B503A200210846C7
:1014700000F084FA10BD000053686F727455704B11
:101480006579000070477047704770477047704734
:101490007047000001460020034A506820F4404095
:1014A00008435060704700000010024029B1064A0E
:1014B00052690243044B5A6104E0034A5269824371
:1014C000014B5A61704700000010024029B1064AE2
:1014D000D2690243044BDA6104E0034AD2698243D1
:1014E000014BDA61704700000010024029B1064A42
:1014F00092690243044B9A6104E0034A9269824371
:10150000014B9A617047000000100240704770471D
:101510007047704770477047704770477047704713
:101520007047704770477047704770477047704703
:10153000704721B1028842F04002028004E0028834
:101540004FF6BF731A40028070478181704710B513
:101550000022028802F441520B884C8823438C8875
:101560002343CC8823430C8923434C8923438C8910
:101570002343CC8923431A430280838B4FF2FF74A9
:10158000234083830B8A038210BD704710B5044645
:101590004FF480510B48FFF754FA4FF4804109484B
:1015A000FFF74FFA0120FFF7BCF921460648FFF785
:1015B000CCFF0520FFF7B5F94FF480410148FFF754
:1015C00042FA10BD000C01400038004010B504463E
:1015D0004FF480510B48FFF736FA4FF48041094829
:1015E000FFF72FFA0120FFF79CF921460648FFF785
:1015F000ACFF0520FFF795F94FF480410148FFF754
:1016000022FA10BD000C01400038004010B5014620
:10161000002009201EE0421E02EB4202124B1A4437
:10162000927800EB4003104C23449A70421E02EB68
:10163000420223461A44527800EB400323445A7076
:10164000421E02EB420223469A5C00EB4003E25446
:10165000421ED0B20028DEDC8822034B1A70992289
:101660005A701A46917010BDE805002010B500F0C0
:1016700001F810BD0CB500200190009025480068CD
:1016800040F480302349086000BF2248006800F41D
:10169000003000900198401C0190009818B9019802
:1016A000B0F5A06FF1D11B48006800F4003010B114
:1016B0000120009001E0002000900098012828D12E
:1016C0001548006840F0100013490860084600689B
:1016D00020F0030008600846006808600D48406874
:1016E0000C494860084640684860084640684860C1
:1016F0000846406820F0030048600846406840F013
:101700000100486000BF0348406800F00C00042856
:10171000F9D10CBD0010024000200240042808D17D
:101720004FF0E021096941F004014FF0E02211611E
:1017300007E04FF0E021096921F004014FF0E022B9
:10174000116170477047000010B51348006840F001
:1017500001001149086008464068104908400E49D8
:101760004860084600680E4908400B490860084672
:10177000006820F4802008600846406820F4FE00DD
:1017800048604FF41F008860FFF770FF4FF0006063
:101790000449086010BD0000001002400000FFF87E
:1017A000FFFFF6FE08ED00E010B5064C246820842B
:1017B000044C24686184034C2468A284014C24688E
:1017C000E38410BD7400002001490968C8627047B5
:1017D0007400002001490968886270477400002085
:1017E0002DE9F84F05460E4617469846DDF828A025
:1017F000AF4202DA3C462F462546B04502DA44465F
:10180000B04626461548006890F8640000F00200D3
:1018100068B11248CDF800A0006843463A46314608
:10182000D0F860C02846E04708B9BDE8F88FB14657
:1018300010E02C4608E00948006852464946036813
:1018400020469847601C04B2BC42F4DD09F1010057
:101850000FFA80F9C145ECDD00BFE6E77400002017
:1018600038B50446074800940068C088401E03B29B
:10187000044800688088401E02B200210846FFF735
:10188000AFFF38BD7400002010B504461422214675
:10189000024800683030FEF743FD10BD74000020A0
:1018A0000249096881F84400704700007400002074
:1018B0000249096881F84500704700007400002063
:1018C00070B504460D462560A280E3800426268478
:1018D0006684A688208C301A401E06B2A684E6884C
:1018E000208C301A401E06B2E684A08CA083E68CC1
:1018F000E683012084F8440084F84500002020633A
:1019000000262687E6866687A68726640D4820651A
:101910006FF07F40A0640020E06420616061A061FE
:10192000002109E0002604F1580040F8316000EB86
:10193000C1000671481CC1B20329F3DB02480460F0
:10194000012070BDEF8B5E00740000202DE9FC418A
:1019500004460D4616461F46DDF8208006480068FE
:1019600030303B4632462946CDE90080204600F023
:1019700011F9BDE8FC810000740000202DE9F84F4A
:101980000646894615463746CA464FE015F9014BCB
:1019900029480068408FA04204DC27480068808FF7
:1019A000A04200DA42E00A2C04D123480068B0F9D2
:1019B00004703BE020480068006C40B11E4800689D
:1019C000016C1D480068408F201A085C03E01A482B
:1019D0000068B0F9360000F0FF0807EB0801164870
:1019E0000068B0F90400401E81420BDD3746124802
:1019F0000068008F1049096891F945100844504467
:101A00000FFA80FA0C480068C06C00900A48006821
:101A100052463946836C2046FFF798FF0648006817
:101A200090F944004044384407B200BF28780028A9
:101A3000ACD1BDE8F88F00007400002001460248D8
:101A4000016001207047000074000020014909680E
:101A5000C8647047740000200149096888647047B1
:101A60007400002070B5002419E044F0B000FFF7C6
:101A70008DFD1020FFF78AFD0020FFF787FD002570
:101A800009E004EB4411074A02EB8101485DFFF7CE
:101A90009DFD681CC5B2842DF3DB601CC4B2082C0C
:101AA000E3DB70BDC801002010B540F225511D4890
:101AB00000F03EF810B31B4800F064F8C4B21A48B6
:101AC000008800F40040C8B91748008800F480403E
:101AD00060B10A2C03D000201349088020E012488E
:101AE000008840F400401049088019E00D2C06D110
:101AF0000D48008840F480400B49088010E00A48F7
:101B00000088C0F30D0009490C5407480088401CA8
:101B10000549088008460088C72801DD00200880A4
:101B200010BD0000003801401C0000208000002093
:101B300070B50246002400230025002040F66A16F6
:101B4000B14200D100BFC1F3421501F01F030126CD
:101B500006FA03F3012D02D19689334006E0022DE7
:101B600002D1168A334001E0968A33400C120126D6
:101B700006FA04F41688344013B10CB1012000E0D9
:101B8000002070BD01468888C0F30800704700BF80
:101B9000FEE700002DE9FF4F89B09846DDE9169475
:101BA000099800F0FF0BBBF1DC0F20D00CDCBBF17F
:101BB000B00F28D0BBF1B50F22D0BBF1C40F1CD0A1
:101BC000BBF1D60F22D10CE0BBF1E40F12D0BBF178
:101BD000F60F03D0BBF1FC0F18D105E04FF0940BCA
:101BE00014E04FF0990B11E04FF0810B0EE04FF035
:101BF0009A0B0BE04FF0840B08E04FF08E0B05E0E2
:101C00004FF0E60B02E04FF0F80B00BF00BF608919
:101C1000584502DCA089584502DA0DB0BDE8F08FC6
:101C20000B9880B20690E08880B20490049800B9C6
:101C3000F3E70498C0100490B4F90600C11700EB54
:101C40005171C910A0EBC10119B10498401C80B2B8
:101C50000490206928B16189ABEB01012069405CE7
:101C600001E0B4F9060080B20390B748006890F82C
:101C70006C0000F0020000287DD021890B980844F8
:101C8000401E03B203990A980844401E02B2AE48AF
:101C90000068D0F868C0DDE90A01E04701902079CA
:101CA000E8BB6089ABEB0000B4F908104843049925
:101CB00000FB01F700262DE0039805904FF0000A85
:101CC00023E038467F1C2268155C0020089012E053
:101CD00005F0010018B140460199884702E04846E6
:101CE000019988476D100598401E80B205900898AC
:101CF000401C80B208900898082802DA059800284D
:101D0000E6D10AF101001FFA80FA04988245D8DB77
:101D1000701C86B2B4F90800B042CDDC12E1FFE7D6
:101D200020790128FAD16089ABEB0000B4F90810E2
:101D30004843B4F9061000FB01F7002641E04FF0DC
:101D4000000A34E038467F1C2268155C09F0FF0069
:101D5000C5F58071484308F0FF0101FB0500C0F3A1
:101D6000072009F47F41C5F58072514308F47F4292
:101D700002FB051100E029E04FF47F4202EA112145
:101D8000084309F47F01C5F58072514308F47F02CE
:101D900002FB05114FF47F0202EA11210843029071
:101DA000DDE9011088470AF101001FFA80FA039863
:101DB0008245C7DBB4F906100398081A0744701C63
:101DC00086B2B4F90800B042B9DCBBE02079002843
:101DD00054D16089ABEB0000B4F908104843049972
:101DE00000FB01F7002644E00A9880B207900398B0
:101DF00005904FF0000A33E038467F1C2268155CDE
:101E00000020089022E005F0010048B14E4800682B
:101E100042460368069801B2079800B2984708E066
:101E2000494800684A460368069801B2079800B21C
:101E300098476D100798401C80B207900598401E87
:101E400080B205900898401C80B208900898082835
:101E500002DA05980028D6D10AF101001FFA80FAAB
:101E600004988245C8DB0698401C80B20690701C1E
:101E700086B2B4F90800B042B6DC63E020790128EC
:101E800060D16089ABEB0000B4F908104843B4F9A5
:101E9000061000FB01F7002650E00A9880B2079078
:101EA0004FF0000A3CE038467F1C2268155C09F0C0
:101EB000FF00C5F58071484308F0FF0101FB0500F4
:101EC000C0F3072009F47F41C5F58072514308F43F
:101ED0007F4202FB05114FF47F4202EA11210843C1
:101EE00009F47F01C5F58072514308F47F0202FBBB
:101EF00005114FF47F0202EA1121084302901248B3
:101F000000680368069801B2079800B2029A9847E1
:101F10000798401C80B207900AF101001FFA80FA6E
:101F200003988245BFDBB4F906100398081A0744EA
:101F30000698401C80B20690701C86B2B4F9080066
:101F4000B042AADC00BF68E674000020014600BF72
:101F50007047000010B56FF00400FFF7DFFB0A4880
:101F600000680A49B0FBF1F009490870084600789A
:101F700000EB4001C1EBC0104FF6FF7101EAC00059
:101F80000449088010BD00000000002000127A0003
:101F900014000020160000200146114A12884A430E
:101FA0004FF0E0235A6100229A611A46126942F00A
:101FB00001021A6100BF4FF0E022106900F0010237
:101FC0001AB100F48032002AF5D04FF0E0221269F5
:101FD00022F001024FF0E0231A6100229A6170475B
:101FE0001600002010B5AF20FFF7D0FA4020FFF711
:101FF000CDFAA020FFF7CAFAA620FFF7C7FAA4205F
:10200000FFF7C4FAA220FFF7C1FAC820FFF7BEFA13
:102010002F20FFF7BBFA2520FFF7B8FAF820FFF7CB
:10202000B5FA0020FFF7B2FA8120FFF7AFFA1520CA
:10203000FFF7ACFA10BDFEF77DFBFFF74FF806E0A7
:10204000FEF7DCFEFEF7C0FF0A20FFF7A5FFF7E76B
:1020500029140008E9130008FD120008691400089B
:102060003D1300088113000827140008E713000837
:10207000FB120008671400083B1300087F130008D8
:1020800049140008091400081D13000889140008E9
:1020900061130008C913000813140008D3130008C3
:1020A000E712000853140008271300086B130008F8
:1020B00011140008D1130008E5120008511400089B
:1020C00025130008691300084514000805140008CA
:1020D00019130008851400085D130008C5130008D3
:1020E00023140008E3130008F71200086314000823
:1020F000371300087B1300084B1400080B1400086A
:102100001F1300088B14000863130008CB1300088A
:102110004D1400080D140008211300088D14000848
:1021200065130008CD1300084F1400080F140008B1
:10213000231300088F14000867130008CF1300084A
:1021400047140008071400081B1300088714000830
:102150005F130008C713000825140008E5130008E2
:10216000F912000865140008391300087D130008EF
:1021700021140008E1130008F5120008611400089A
:1021800035130008791300081D140008DD1300083A
:10219000F11200085D1400083113000875130008DF
:1021A0001F140008DF130008F31200085F14000872
:1021B000331300087713000815140008D51300081E
:1021C000E912000855140008291300086D130008CF
:1021D00017140008D7130008EB1200085714000862
:1021E0002B1300086F13000819140008D9130008F6
:1021F000ED120008591400082D130008711300088F
:102200001B140008DB130008EF1200085B14000821
:102210002F130008731300087D1200083D120008F8
:1022200059110008BD12000899110008D9110008C1
:102230007B1200083B12000855110008BB12000871
:1022400097110008D71100089D1200085D120008C0
:1022500079110008DD120008B91100081D120008EC
:10226000671200082712000841110008A712000891
:1022700083110008C3110008651200082512000828
:102280003F110008A512000881110008C1110008C3
:10229000991200085912000875110008D912000897
:1022A000B51100081912000877120008371200084B
:1022B00051110008B712000893110008D31100084B
:1022C0009F1200085F1200087B110008DF1200084F
:1022D000BB1100081F120008A112000861120008BB
:1022E0007D110008E1120008BD110008211200084C
:1022F000A3120008631200087F110008E31200080F
:10230000BF110008231200089B1200085B1200088E
:1023100077110008DB120008B71100081B12000833
:10232000791200083912000853110008B912000888
:1023300095110008D5110008751200083512000823
:102340004F110008B512000891110008D1110008C2
:1023500071120008311200084B110008B112000878
:102360008D110008CD110008731200083312000807
:102370004D110008B31200088F110008CF1100089A
:10238000691200082912000843110008A912000868
:1023900085110008C51100086B1200082B120008F7
:1023A00045110008AB12000887110008C71100088A
:1023B0006D1200082D12000847110008AD12000828
:1023C00089110008C91100086F1200082F120008B7
:1023D00049110008AF1200088B110008CB1100084A
:1023E00025150008231500082B1500080F150008F7
:1023F0000D150008271500081F1500082D150008E9
:102400002F150008311500082915000821150008AE
:102410001D150008191500081B15000811150008E6
:102420001315000815150008171500080000000016
:1024300000000000000000000000000000003C421E
:10244000A581BD423C000000000000003C7EDBFF97
:10245000DB423C0000000066FFFFFFFF7E7E3C3C4D
:10246000180000000010183C7EFF7E3C3810100061
:10247000000000183C3C7EFFFF6E1818180000009A
:10248000001018387CFEFFFF6E18180000000000D6
:10249000000000000000000000000000000000003C
:1024A000000000000000000000000000000000002C
:1024B000000000000000000000000000000000001C
:1024C0000000000000000060D0A03C2241414122F9
:1024D0001C000000001C22414141221C083E080053
:1024E00000000000000000000000000000000000EC
:1024F000004070584848484848783E0F07000000A0
:1025000000087E46C3467E0800000000000000016F
:10251000073FFF3F0F070100000000000080E0FCC4
:10252000FFFCF0E080000000001038541010101084
:1025300010105438100000242424242424240024BF
:1025400024000000007E4F4F4F4E484848484848FE
:102550004800007804041C34444C386040443C007B
:1025600000000000007E7E00000000000000103827
:1025700054101010101010543810007C00103854F3
:10258000101010101010101010000010101010106B
:1025900010101010543810000000000010207E2091
:1025A0001000000000000000000008047E04080085
:1025B00000000000000000000202020202027E0091
:1025C00000000000000000247E2400000000000045
:1025D000000000101038383C7E7EFF000000000034
:1025E00000FF7E7E3C383810100000000000000024
:1025F00000000000000000000000000808080808B3
:10260000080800080800000024242424000000001A
:1026100000000000000000909048FE4824FF2412B3
:1026200012000000083C0A0A0A0C182828281E0874
:1026300000000086492929166894949261000000E0
:1026400000182424140C8B917163FE00000008080C
:1026500008080000000000000000000060300808CA
:1026600004040404040808306000060C1010202044
:1026700020202010100C060000080866142C2400EE
:10268000000000000000000000000808087F0808A3
:1026900008000000000000000000000000181810F2
:1026A00008000000000000007E00000000000000A4
:1026B000000000000000000000181800000040208A
:1026C00020201010180808040404020000182442F6
:1026D0004242424242241800000000101E10101016
:1026E00010101010FE000000001E20202010100806
:1026F00004023E000000003C404040384040404062
:102700003C000000002030282824227E20202000C9
:102710000000007C0404041C604040403C000000B9
:1027200000380402023A4642424438000000007E6B
:10273000402020100808080404000000003C424229
:10274000221C244242423C000000001C2242426201
:102750005C4040201C000000000000001818000031
:1027600000181800000000000000181800000018F1
:102770001810080000000000403008060830400033
:10278000000000000000007E00007E00000000004D
:1027900000000000020C1060100C02000000003E5F
:1027A000424020100808000808000000003C467263
:1027B00049494969DB223C00000000001018282428
:1027C00024427E428100000000003E4242221E223E
:1027D00042423E00000000007C02010101010102B2
:1027E0007C00000000001F214141414141211F00A8
:1027F000000000007E0202023E0202027E00000093
:1028000000007E0202023E020202020000000000FE
:102810007C020101017141427C0000000000424243
:1028200042427E4242424200000000003E08080848
:10283000080808083E00000000003C20202020205E
:1028400020201E00000000004222120A060A122266
:1028500042000000000002020202020202027E00A8
:102860000000000063636355555549414100000075
:1028700000004246464A4A525262420000000000AE
:102880001C224141414141221C00000000003E4207
:102890004242621E02020200000000001C2241416E
:1028A000414141221C60C00000001E2222221E1253
:1028B00032224200000000007C0202061860404004
:1028C0003E00000000007F0808080808080808000B
:1028D0000000000042424242424242423C000000AC
:1028E0000000814242222414140808000000000065
:1028F0008181C9595A5A666624000000000081424D
:10290000241818182442810000000000814222147B
:10291000180808080800000000007F402010080484
:1029200002017F0000007808080808080808080865
:102930000808780002040404080818101020202059
:1029400040001E10101010101010101010101E005B
:102950000010101828282444420000000000000045
:10296000000000000000000000FF00001020000038
:1029700000000000000000000000000000003C40DB
:10298000407C4242FC000000020202023A464242FF
:1029900042463A00000000000000780402020204EF
:1029A00078000000404040405C62424242625C006D
:1029B0000000000000003C44427E02027C00000057
:1029C000700808087E0808080808080000000000D1
:1029D00000007C62424242625C40403C02020202D1
:1029E0003A464242424242000000181800001E10BF
:1029F0001010101010000000303000003C2020208B
:102A000020202020201E0202020222120A061A2280
:102A1000420000001E1010101010101010101000B6
:102A20000000000000006D5B494949494900000071
:102A3000000000003A4642424242420000000000CC
:102A400000001C22414141221C0000000000000047
:102A50003A46424242463A020202000000005C62EC
:102A6000424242625C404040000000003A260202BE
:102A7000020202000000000000003C0206182020B4
:102A80001E000000000004047F0404040404780015
:102A90000000000000004242424242625C0000002E
:102AA00000000000814242221414080000000000CF
:102AB000000081915A5A66242400000000000000A2
:102AC000422418181824420000000000000081422F
:102AD0004224241818080C07000000007F2010086A
:102AE00004027F00000070080808080806080808AB
:102AF0000808700010101010101010101010101096
:102B000010000E10101010106010101010100E0099
:102B10000000000000869961000000000000000035
:102B200000081C22414141417F00000000007C025E
:102B30000101010101027C1020300024000042420A
:102B4000424242625C000000201000003C44427E91
:102B500002027C000000182400003C40407C4242FD
:102B6000FC000000002400003C40407C4242FC008D
:102B70000000081000003C40407C4242FC00000085
:102B8000102810003C40407C4242FC000000000045
:102B900000007804020202047808101818240000CB
:102BA0003C44427E02027C000000004800003C449D
:102BB000427E02027C000000081000003C44427E7D
:102BC00002027C000000002400001E1010101010F3
:102BD00010000000182400001E101010101010002B
:102BE0000000081000001E1010101010100000004F
:102BF00024001018282424427E428100000008147A
:102C0000081C143422227E438100000020107E0222
:102C100002023E0202027E000000000000007788EF
:102C200088FE0909F60000000000F018181474125C
:102C30001E12F1000000182400001C224141412214
:102C40001C000000002400001C22414141221C0005
:102C50000000040800001C22414141221C00000029
:102C6000182400004242424242625C000000040814
:102C700000004242424242625C0000000024000028
:102C800081424224241818080C0724001C224141C8
:102C9000414141221C000000240042424242424283
:102CA00042423C000000000000007E635149452282
:102CB0001F00000000700808081C080808047C00B9
:102CC000000000005C226151494543221D000000C4
:102CD0000000000041221408142241000000700886
:102CE00008083C0808080808080808072010000021
:102CF0003C40407C4242FC000000201000001E10BE
:102D00001010101010000000201000001C22414183
:102D100041221C0000002010000042424242426258
:102D20005C000000483400003A4642424242420001
:102D3000000058344246464A4A525262420000005D
:102D4000003C2038247C0000000000000000001C33
:102D50002222221C000000000000000000000000F1
:102D60001010001010080402427C003C425A5A42E3
:102D70003C000000000000000000000000007F4058
:102D800040000000000000432232120AF88446325C
:102D9000F100000000432212120A68544AFA41006E
:102DA00000000000000008080008080808080808DB
:102DB0000000000048241212244800000000000017
:102DC0000000122448482412000000004900004975
:102DD0000000490049000049000092490092490062
:102DE0009249920049920049FF4949FF4949FF49E8
:102DF000FF4949FF49491010101010101010101011
:102E0000101010101010101010101F1010101010B3
:102E1000101010081018282424427E42810000005F
:102E200018241018282424427E4281000000081033
:102E30001018282424427E4281000000003C42B940
:102E400085858585B9423C00000028282828282F40
:102E5000202F2828282828282828282828282828F3
:102E600028282828282800000000003F202F282894
:102E70002828282828282828282F203F000000005C
:102E800000000010781412121212147810000000C2
:102E90000081422414083E083E080800000000009B
:102EA000000000001F101010101010101010101053
:102EB0001010F000000000000000101010101010A2
:102EC000FF00000000000000000000000000FF10F4
:102ED000101010101010101010101010F010101012
:102EE00010101010000000000000FF0000000000A3
:102EF0000000101010101010FF1010101010101003
:102F0000483400003C40407C4242FC000000583401
:102F10001018282424427E428100000028282828F6
:102F200028E808F80000000000000000000000F899
:102F300008E82828282828282828282828EF00FFFB
:102F40000000000000000000000000FF00EF282843
:102F5000282828282828282828E808E82828282891
:102F600028280000000000FF00FF00000000000013
:102F70002828282828EF00EF2828282828280000BB
:102F8000413E222222223E4100000000170C162062
:102F90003C62414141221C00000000003E4282820E
:102FA0008F8282423E00000018247E0202023E020E
:102FB00002027E00000024007E0202023E020202A3
:102FC0007E00000010207E0202023E0202027E000D
:102FD0000000000000001E10101010101000000073
:102FE00020103E080808080808083E0000001824C1
:102FF0003E080808080808083E00000024003E08B3
:103000000808080808083E000000101010101010F2
:103010001F00000000000000000000000000F01091
:10302000101010101010FFFFFFFFFFFFFFFFFFFF4A
:10303000FFFFFFFF00000000000000FFFFFFFFFF99
:10304000FFFF1010101010000000101010101000E2
:1030500008103E080808080808083E000000FFFFA6
:10306000FFFFFFFFFF0000000000000020101C22F7
:103070004141414141221C0000001C222222121227
:10308000224282827200000018241C2241414141E8
:1030900041221C00000008101C22414141414122F4
:1030A0001C000000483400001C22414141221C0049
:1030B000000058341C224141414141221C000000C3
:1030C000000000004242424242665A0202020202EC
:1030D00002023A46424242463A020202000002021C
:1030E0003E4242423E020200000020104242424262
:1030F000424242423C0000001824424242424242C4
:1031000042423C00000010204242424242424242BF
:103110003C000000201000008142422424181808BE
:103120000C0720108142221418080808080000002B
:10313000FF00000000000000000000000000100878
:10314000000000000000000000000000000000007F
:1031500000007E00000000000000000000000808E1
:103160007F0808007F000000000000000000000051
:10317000000000FF00FF00874423241768544CFA26
:1031800041000000007E4F4F4F4E48484848484895
:103190004800007804041C34444C386040443C002F
:1031A000000000001818007F001818000000000040
:1031B00000000000000000000008101800081408BB
:1031C00000000000000000000000240000000000DB
:1031D00000000000000000000000000000001818BF
:1031E0000000000000000018101010100000000087
:1031F00000000000003C2018203C000000000000FF
:103200000000003C2010083C00000000000000000E
:10321000000000007E7E7E7E7E7E7E00000000003C
:103220000000000000000000000000002C24000846
:10323000000008000E000000FF0000000000000079
:1032400064646400646464006464640064646400CE
:10325000FFFFFF00FFFFFF006969690069696900FE
:10326000E3E3E300E3E3E300A0A0A000A0A0A0004C
:10327000646464006464640064646400646464009E
:10328000A0A0A000A0A0A000A0A0A000A0A0A000BE
:10329000F0F0F000F0F0F000F0F0F000F0F0F000EE
:1032A000646464006464640064646400646464006E
:1032B000FFFFFF00FFFFFF0069696900696969009E
:1032C000E3E3E300E3E3E300A0A0A000A0A0A000EC
:1032D000646464006464640064646400646464003E
:1032E000A0A0A000A0A0A000A0A0A000A0A0A0005E
:1032F000F0F0F000F0F0F000F0F0F000F0F0F0008E
:10330000646464006464640064646400646464000D
:10331000FFFFFF00FFFFFF0069696900696969003D
:10332000E3E3E300E3E3E300A0A0A000A0A0A0008B
:103330005033000800000020800000006C010008ED
:10334000D033000880000020580C000088010008DD
:1033500000127A00000000000000000001020304D7
:10336000060708090000000000000000000000003F
:10337000000000000000000000000000000000004D
:1033800000000100500F0200750903009F070400B0
:10339000570D05009C0B060076090700F001080098
:1033A000510F0900EF010A00E7030B00580D0C0054
:1033B000E6030D00C1050E009D0B0F00C0051000B7
:1033C000A007000000000000000000000000000056
:04000005080001D519
:00000001FF
